:020000041000EA
:1000000000B5324B212058609868022188439860DF
:10001000D860186158612E4B002199600221596106
:100020000121F02299502B49196001219960352056
:1000300000F044F80222904214D00621196600F024
:1000400034F8196E01211966002018661A6600F04E
:100050002CF8196E196E196E052000F02FF8012189
:100060000842F9D1002199601B49196000215960AB
:100070001A491B48016001219960EB211966A021F2
:10008000196600F012F800219960164914480160C1
:100090000121996001BC002800D000471248134993
:1000A000086003C880F30888084703B5996A0420EC
:1000B0000142FBD001200142F8D103BD02B5186610
:1000C0001866FFF7F2FF186E186E02BD00000240BE
:1000D000000000180000070000035F00212200005C
:1000E000F4000018222000A00001001008ED00E03C
:1000F00000000000000000000000000074B24E7A12
:1001000000200420F7010010C3010010C5010010F9
:10011000C1010010C1010010C1010010C101001097
:10012000C1010010C1010010C1010010C701001081
:10013000C1010010C1010010C9010010CB01001065
:10014000CD010010CD010010CD010010CD01001037
:10015000CD010010CD010010CD010010CD01001027
:10016000CD010010CD010010CD010010CD01001017
:10017000CD010010CD010010CD010010CD01001007
:10018000CD010010CD010010CD010010CD010010F7
:10019000CD010010CD010010CD010010CD010010E7
:1001A000CD010010CD010010CD010010CD010010D7
:1001B000CD010010CD010010CD010010CD010010C7
:1001C00000BE00BE00BE00BE00BE00BEEFF3058054
:1001D000103800BEF2EB8871344A0010544A001007
:1001E0003802001090A31AE71E481F49086006C88D
:1001F00081F3088810471D480068002801D019487D
:10020000F3E70DA40ECC002902D000F012F8F9E7B4
:100210001749184A002000E001C19142FCD116495B
:100220008847164988471649884700BEFDE701C937
:1002300001C29A42FBD37047544A0010C00000200C
:10024000C0100020545A00100000042000000420B8
:10025000545A001000100420001004200000000078
:10026000704700000000000008ED00E0000000D032
:10027000C01000203C210020251A00106903001046
:100280001D1A0010F8B5C0460448054B10B583424E
:1002900003D0044B002B00D0984710BDC0100020A5
:1002A000C01000200000000006480749091A8B1002
:1002B000C90FC91810B5491003D0044B002B00D04A
:1002C000984710BDC0100020C010002000000000A2
:1002D00010B5074C2378002B09D1FFF7D5FF054B4C
:1002E000002B02D0044800E000BF0123237010BDA2
:1002F0004814002000000000FC450010054B10B51C
:10030000002B03D00449054800E000BFFFF7CCFFF5
:1003100010BDC046000000004C140020FC45001039
:1003200070B504000D0002280FD003280DD0062858
:100330000BD0072809D0082807D0092805D00A289B
:1003400003D001200B2C00D070BD200000F03AF843
:100350000123D022A3401206002D02D000205362B8
:10036000F2E700209362EFE7F0B5C646012100B541
:100370000220FFF7D5FF01F065FC0E4BD025984613
:100380000D4F0E4E2D06404601F0ACFCFA20042421
:10039000400000F097FE38006C6101F0A3FC0848B3
:1003A00000F090FE3000AC6101F09CFC044800F0CD
:1003B00089FEE8E7FC450010104600101C460010BE
:1003C000DC0500000123D022834040211206936205
:1003D0009361094A83009A181268C0005140C022F4
:1003E0000A4006498C4663441A60054B9C46052327
:1003F000604443607047C04604C0014004D00140DF
:10040000004001408023DB051868000F7047C0469C
:100410000FB400B5084883B001F064FC049B002BC6
:1004200007D005A91800019101F0DEFA034801F098
:1004300059FC012001F0F0FA28460010384600105F
:1004400070B5EFF3108C72B60D4D2B68002BFCD0FD
:10045000BFF35F8F0724CB08C618C05C01230C4094
:10046000A3401C000440034207D103433370BFF391
:100470005F8F2C608CF3108870BD1000FFF7C8FFF1
:100480002C0100D0F8B54746CE46884680B5EFF33C
:10049000108C72B6214D2C68002CFCD0BFF35F8FFE
:1004A0009A422CD8D4080727055D06190124174065
:1004B000BC402C421FD007210127894609E0D408FF
:1004C000055D06194C4639001440A1400C00294234
:1004D00011D001329342F2D201204042BFF35F8F2C
:1004E00000220E4B1A608CF3108800280FDBC0BC72
:1004F000B946B046F8BD2C4310003470EEE7BFF3A8
:100500005F8F00232B608CF310880120404243460C
:10051000002BECD00898FFF77BFFC0462C0100D0E1
:10052000044A1078431CDBB2172B00D91023137038
:100530007047C046F80F002000B5054B83B001009E
:10054000009318221F230348FFF79CFF03B000BD50
:100550003C460010801C00200021044B044ABFF3DD
:100560005F8F02C39342FAD17047C046000100D0AA
:10057000800100D0054B064A1360064A13605360A1
:100580009360D36013615361936170478080808072
:1005900000E400E004E400E01F2318401E3B834019
:1005A000002905D0C021044A490053501360704708
:1005B000802201498B50FAE700E100E001228240ED
:1005C000034B1B6813405A1E9341D8B27047C04674
:1005D00000E100E001238340014A13607047C046F8
:1005E00000E200E0084B10309B688000C358002BED
:1005F00007D0064A00209B1A2F229A424041C0B2DF
:1006000070470020FCE7C04600ED00E0FC0F002032
:1006100070B50D00EFF3108672B60F4A1368002B09
:10062000FCD0BFF35F8F0D4B10309B6884001B59CB
:100630000B4A934203D09D4201D000F0EDFF074BDF
:100640009B681D51BFF35F8FBFF35F8F0022024B8A
:100650001A6086F3108870BD240100D000ED00E020
:10066000CD010010F0B557464E46DE464546E0B592
:1006700085B0060002911700EFF3108B72B6674A3F
:100680001368002BFCD0BFF35F8F0025644B5D57D0
:100690009A46002D00DAA4E06B00624C03935B19CC
:1006A0009B009846A146C1444B4652469B79103662
:1006B00013705D4BB2009B68019299580B1B2F2B56
:1006C00034D95A4B994200D0A4E0039B584A9C4627
:1006D000584B6544AD006353434602336519E41833
:1006E000554B0121043B1B1B1B055B0D13436B800A
:1006F000524BEF71AB80FF23AB71029BAB604B465B
:100700000B431900484B019A9B689950BFF35F8FC8
:10071000BFF35F8F0022414B1A608BF3108805B046
:10072000F0BCBB46B246A946A046F0BD01200A0077
:100730008243D379BB422FD845464E4613004049E9
:100740001B1B5B415943090D3A4B63533A4B02352E
:100750006519043B5B1B1B05354D5B0D2B437380FB
:100760000426B446E0444444131F1B1B4C46A171AD
:1007700002991B05A16049465B0D2B43A380314BB9
:10078000E77101431360BDE75800C01880002018CE
:10079000C679BE422BD902000623D356002BF3DACA
:1007A000101D82462848804604267642B446E1441D
:1007B00050464E46361A3005400D824656461C4875
:1007C000957106439680039A944665441D4AAD0090
:1007D000641922604246A371029BA280E771A36064
:1007E00090E700F019FF002553465D5754E7101DB0
:1007F000824690884005001584464046D4446646AB
:1008000004302018301AE0260005400D360230432F
:100810008046C9E700F000FF57E7C046240100D03A
:1008200035210020FC0F002000ED00E0CD0100107C
:1008300000E0FFFF00A1FFFF2C10002001BDFFFF23
:10084000AAAA00000148804701BD000070B501243C
:100850000443EFF30581EFF3108C72B6214A13685D
:10086000002BFCD0BFF35F8F1F4B05001F4AED1A12
:100870006D416A43120D1E4D8900AE6852B2765822
:10088000A6421CD00621595691421CD0122159561D
:10089000914222D01E215956914220D02A215956E8
:1008A0000324914210D0134B19781A708171BFF351
:1008B0005F8F00220B4B1A608CF3108870BDAB6801
:1008C0000D4C5C50EFE700246100091989005B18AA
:1008D000FF21997109499980E5E70124F4E7022491
:1008E000F2E7C046240100D0FC0F0020AAAA0000B5
:1008F00000ED00E035210020CD01001001BDFFFF1B
:1009000000B5074B83B00100009300220523054882
:10091000FFF7B8FD002801DB1F23181A03B000BD44
:100920005846001039210020024B9C466144890042
:100930000160704740000034F8B5134D134E2C0091
:10094000FF27B5421ED22368002B0FD0FFF7E8FD2A
:1009500001002800FFF7E8FFA780BFF35F8F08348E
:10096000B4420FD223682500002BEFD1FFF7D8FD4A
:1009700001002800FFF7D8FF2771BFF35F8F08340D
:10098000B442EFD3F8BDC046B8100020C01000201C
:1009900010B50400FFF7C4FD01002000FFF7C4FFFD
:1009A000FF232371BFF35F8F10BDC04610B5040055
:1009B0000120FFF7C1FD044B9C466044800020608D
:1009C000BFF35F8F10BDC04640000034034B9C4610
:1009D000614489000160BFF35F8F704740000034BD
:1009E0000A4B1968EFF3108072B60A68002AFCD02F
:1009F000BFF35F8F1B68BFF35F8F00221A6080F325
:100A0000108840BF002000217047C04614210020FC
:100A1000F0B5DE4657464E464546E0B585B0EFF3A5
:100A20000582032313409A0011000392B64A5258DC
:100A3000904601229A40B54B91461A6031E04346F8
:100A40009B881BB2002B00DB9DE043469B79002B6B
:100A500000D0EFE0434608241C5F002C00DA17E1C9
:100A600042465269630094461B19DB0063449C684C
:100A7000DD68631C00D113E1A54B03999C466144DA
:100A80009A6A0B69A01A9B1A984200D20C61A0487E
:100A900000F0ACFB241A8D41002D00DDF8E000D100
:100AA0002EE14B469A484363434608229B5E9A4692
:100AB000002BC4DB424652695B0093465344DB0083
:100AC0009B445B469E68DF6800F090FB801BB94149
:100AD0000029B4DB002F00DAEDE05B468D4A1B698C
:100AE000934200D1E0E041465A460820085E528811
:100AF000000410435A465169984704000D00230032
:100B00002B4300D1D7E0002D00DBF0E0361BAF41D6
:100B100034003D005B469C60DD600021595E002989
:100B20008DDB43465B6922009C462B004800401841
:100B3000C00060448668C768921BBB41002B00DA86
:100B40007DE74346664602000094019519810CE05A
:100B50007B00DB19DB00F318009801999C68DD68C5
:100B6000001BA941002904DB1A000023D75E002FD7
:100B7000EEDA5B461F805346138043469B881BB2C8
:100B8000002B00DA61E743461A69EFF3108172B671
:100B90001368002BFCD0BFF35F8F43469B8842460F
:100BA0001BB29A4601235B4293801369BFF35F8FA8
:100BB00000221A6081F310885346002B00DA44E7C4
:100BC00043465B699C46082343449B4653465F006B
:100BD00043465744FF0008229A5E67445E46BC685D
:100BE000FD68002A19DB3B000094019567469C468E
:100BF00004E01E000023F25E002A0BDB009801993E
:100C000053009B18DB00FB189C68DD68001BA941A2
:100C10000029EEDA6346BC461F00534633800021AC
:100C20007B5E3A809A46002BD0DA43469B79002BB4
:100C300000D10FE700234246937143464646082100
:100C4000595E08364B1C23D047468C46556902E056
:100C500006004B1C17D04B005B18DB00E8180A009D
:100C6000E95E43881BB2002BF2DA01235B42DC17FA
:100C70008360C4606245ECD031803B899446038038
:100C80003A814B1CE7D16446B846002C00DBE7E60E
:100C900040BF05B0F0BCBB46B246A946A046F0BD79
:100CA0006B1C00D0E8E6F2E65B465C692000236935
:100CB0009847002821D15B4642461B881381126960
:100CC000EFF3108372B611680029FCD0BFF35F8F79
:100CD0004246594652880A8042465146518012691E
:100CE000BFF35F8F0021116083F31088A7E60848E7
:100CF00000F07CFA24184D410CE765682468FEE694
:100D0000002C00D1CDE6C3E7F82000203C70054060
:100D100000400540110A001070B52E4C2569002DC9
:100D200004D00A212C48FFF7FFFD70BD2B4E032194
:100D3000300000F051FAE660FFF7F2FB284B032287
:100D40009C46D02322701B061B6801216370254B33
:100D50006044A3600F2380002061022063806369E8
:100D60004942A18019800231198647311D835852AA
:100D700018315A5275325C399952183201319952F0
:100D8000183201319952183201319952083518320E
:100D90009D5202311832995218320131995218324B
:100DA0000131995218320131995218320131995258
:100DB0001832013199520C4B0C49DC60013035621C
:100DC000FFF726FC01210320FFF7E6FB084B1D601F
:100DD000A7E7C04644100020142100200040054031
:100DE00040000034FFFF1000F8200020110A00101E
:100DF000386005400048704744100020F8B51F00D7
:100E000008AB1B7804001600002B07D100F0F6F9A0
:100E100032003B00121A8B41002B4CDB2269EFF3AE
:100E2000108072B61368002BFCD0BFF35F8F62692D
:100E30000223E15E94464B005B18DB00634400290B
:100E400001DB1A8862802269BFF35F8F002515607D
:100E500080F31088002930DB069A9E60DF601A61FB
:100E6000079A5A615A8801325204520C161C002A01
:100E70001FD0B0B20A045E8010432669EFF31085DC
:100E800072B63268002AFCD0BFF35F8FA2881A8046
:100E9000A1802369BFF35F8F00221A6085F3108859
:100EA000074923788C4601329A40E36863441A600C
:100EB000F8BD0126DDE70020FAE701204042F7E710
:100EC0003C20000070B5C646010000B50469EFF390
:100ED000108C72B620680028FCD0BFF35F8F022010
:100EE0000D5E48696C0080466419E4004444002D9E
:100EF00001DB208848800869BFF35F8F0026066009
:100F00008CF31088002D30DBE36063880598013393
:100F100020615B0406985B0CA26060611A1C002BC8
:100F200021D090B22B04628018430A69EFF3108637
:100F300072B61368002BFCD0BFF35F8F8B882380C1
:100F40008D800B69BFF35F8F00221A6086F31088D3
:100F50000B7801329A40CB6805498C4663441A608D
:100F600040BCB04670BD0122DBE701204042F7E7FC
:100F70003C20000010B543890A14934233DD53002E
:100F80009B184269DB00944604696344EFF3108CBC
:100F900072B62268002AFCD0BFF35F8F5A8809041A
:100FA00094B2090C8A4208D00369BFF35F8F002214
:100FB0001A608CF31088002010BD802212021443A6
:100FC0005C80012302698371BFF35F8F0021116090
:100FD0008CF31088054902788C469340C268012042
:100FE00062441360E8E70020E6E7C0463C200000CA
:100FF00040787047F0B504000D0006267642F717DA
:10100000C64636196F4100B582B08F4214D811D050
:1010100000F0F4F832003B00121A8B41002B15DC73
:10102000002B44D02000290000F0F2F802B080BC70
:10103000B846F0BD8642EBD90026002700F0DEF866
:1010400032003B00121A8B41002BE9DD00F0D6F88C
:1010500032003B00121A8B41002B0ADB0023019364
:10106000144B3200009314483B00FFF72BFF00287D
:10107000D8DBB0460026BC46104A114F7B6A9C451F
:1010800004D8B96A8845CDD99C45CBD11168EFF316
:10109000108072B60B68002BFCD0BFF35F8F136813
:1010A000BFF35F8F1E6080F3108820BFE6E7002A41
:1010B000B8D0CBE7E1090010441000201421002033
:1010C0000040054070B5060000F098F8FA220400D0
:1010D0000D00002330000021920000F007FC0019F1
:1010E0006941002902DBFFF785FF70BD012001493E
:1010F0004042F8E7FFFFFF7FF0B5CE46474680B598
:1011000004000D0083B0EFF30587002F3BD12F4E75
:1011100081463378F26804339B00916A9B58421AE7
:101120005B1A9A420ED320BF294A0020536AAB4271
:1011300003D3926A013091453CD803B0C0BCB94694
:10114000B046F0BD00F05AF822002B00121A8B4175
:10115000002B26DB1F4B2200009330002B00019751
:10116000FFF7B0FE011E1CDD194BA8465A6A9542D6
:1011700025D920BF3000FFF7FDFE154A0020536A35
:101180009845DAD8D5E7124A0020536A8B42D4D367
:10119000926A0130A242D0D2581A421E9041C0B287
:1011A000CBE70B4A0020536AAB42C6D3926A0120B8
:1011B0009145C2D9E81A421E9041C0B2BDE79B6A70
:1011C0009C42D7D99542D5D1D3E7C04644100020E0
:1011D00000400540E109001010B5024A0248FFF73F
:1011E0002FF910BD74460010841C00200300416AD2
:1011F0000A00986A596A8A42FAD17047034B596AC1
:101200000A00986A596A9142FAD170470040054035
:10121000064A536A9942FCD807D1044B02E05A6A45
:10122000914202D19A6A8242F9D370470040054048
:10123000F8B5DE464E4657464546E0B58B460500B6
:101240000A991800160000F0C5FA0A9B6C001F02EC
:10125000324B64199C46A4006444636881469F42F3
:1012600000D967602B1FDBB29846012B30D9C02311
:1012700080229B01E31812011A60294BAD005959D5
:101280009A4600291BD1226876017240E02680230D
:10129000164042465B01E3181E60012A30D98023C4
:1012A00080229B01E31812011A6053464A46676088
:1012B0005A51F0BCBB46B246A946A046F8BD586993
:1012C00000F088FA431C5800C0180338FDD2DAE752
:1012D0005B46012BCBD1C02303229B01E3181A608C
:1012E000023AA3681A42FCD0E023226876015640F5
:1012F0001E4080230A4A5B019246E3181E60AD003F
:101300005A462168514003220A401A6001225B4676
:101310009A40A3681A42FCD0C1E7C0460080004052
:10132000881C0020F0B546464F46D646C0B51F0083
:10133000344B44009C462418A400644463688846E7
:101340001600FF2B02D880235B006360031FDBB213
:101350009A46012B30D9C02380229B01E318120149
:101360001A60294B85005959994600291BD12268DA
:1013700076017240E0268023164052465B01E31856
:101380001E60012A30D9802380229B01E3181201BC
:101390001A6080235B0063604B465F51E0BCBA4635
:1013A000B146A846F0BD586900F014FA431C580035
:1013B000C0180338FDD2DAE74346012BCBD1C02356
:1013C00003229B01E3181A60023AA3681A42FCD078
:1013D000E0232268760156401E4080230A4A5B01C2
:1013E0009146E3181E608500424621685140032261
:1013F0000A401A60012342469340A2681342FCD07F
:10140000C1E7C04600800040881C0020014B8000DE
:10141000C0587047881C0020F8B5040020481D0003
:1014200017000E0000F0D6F90100380000F0D2F9E4
:10143000069B29041B0319432368002B1EDB194B51
:10144000194DE21853425A4180235B019C46120316
:10145000164B62441A60164B1A6017002B689F43A4
:10146000FBD1144B2660E2182123A060136023688F
:10147000002BFCDA0823E1601360F8BD3F232268EB
:101480001340B342DBD1A3681B051B0D8342D6D1A9
:10149000EE22E368D20213408B42D0D1EDE7C04682
:1014A000001BB7000040FDBF08C0004000E0004046
:1014B00000F000400430000010B5140080221B4BE7
:1014C000D2051A6000281AD00123194A1843194B73
:1014D000DA61194A42401A62596298628022134BBB
:1014E000D2051A601549164A1160E022D2041A602A
:1014F000002C07D18022134B12061A6010BD0D4B31
:10150000D861EBE763011B1B9A00802312191201BB
:101510005B049A4200D30C4A0C4B1A60054B5A608C
:101520008022084BD2051A60E8E7C04600B00540AB
:10153000D3C007B0008005402D3FF84FFCFF0100ED
:101540000820014000A00540FFFFFF00E820002028
:101550008023024A9B000B43D36270470080054002
:10156000142310B50100188804331B88984710BD58
:10157000162310B50100188802331B88984710BD48
:10158000F8B54746CE4680B50F1E19D014239946AC
:10159000043304000025012698464B46188843462C
:1015A00021681B88984701C4431E98410135404279
:1015B0000640AF42F1D13000C0BCB946B046F8BDDC
:1015C0000126F8E7142370B50400188804331B883B
:1015D0000D000549984703000020002C01DB013075
:1015E000A04029009847C04655420000AA23064A59
:1015F0001B0113602F230549D360054B1960536805
:10160000002BFCDA7047C0460040024000B0FA00F0
:10161000006002407047C04610B50148FEF7F8FE72
:101620009846001070B5074D074EB54209D2002408
:10163000013E761BB60808CD984723000134B3421B
:10164000F9D170BDB8450010F4450010054B064AAD
:1016500006491A60064A074B1A6010000B68984347
:10166000FBD1704700E00040BFCDFBFE08C000404A
:10167000FE7F3C0000F00040044BDB6C002B03D1EC
:101680008022034BD2021A607047C04600001150FE
:101690004C201150044A054B1A60054A1368DB01BF
:1016A0008033FBD17047C046FFFFFF0100F00040D0
:1016B00008C000404022034B9A675A671A67DA66EF
:1016C0007047C04600F0014010B5FEF745FF10BD61
:1016D00070B5044D044C2800C022A16800F076F9D2
:1016E000A56070BD0000002000ED00E0002310B5F3
:1016F000294C82B0A367FFF779FF0122274B1A60BC
:10170000636C012BFCD10322254B1A60224A936B98
:10171000012BFCD1013300930121224A22480433DA
:10172000FFF77AFE052301210093204A2048FFF7A6
:1017300073FE0022022104201E4BFFF7F3FD00225E
:10174000012105201C4BFFF7EDFD002200210720A1
:101750001A4BFFF7E7FD002200210820174BFFF787
:10176000E1FD8023DB000093002200210920134BC0
:10177000FFF75EFD0022104B00210620FFF7D2FD8F
:101780000420FFF743FE0E4900F024F8010000207A
:10179000FFF7DEFE02B010BD008000403CB000400C
:1017A00030B00040002F685900800240008C86470E
:1017B00000C00240001BB70040597307006CDC02F8
:1017C00040420F0001480421014B184760100020DF
:1017D00081150010114A936F9B0813D21066516651
:1017E000002905D0FFE7FFE7FFE7516F106F704753
:1017F00004B5002801D00020C04302F09DFE002166
:1018000004BDC046F0B5146E556E576F166FFFF7E6
:10181000E5FF1466556657671667F0BD000000D0F7
:10182000132370B51D78012D19D014DD1E48FFF764
:101830009FFE06001D48FFF79BFE1D4C80223100D5
:10184000200000F0C3F8022D06D01A48FFF788FEEA
:10185000194B186070BD164C184BA364F5E7174B75
:10186000134C23606360A360E36023616361A36141
:10187000E36123626362A362E36223636363A3633E
:10188000E36323646364A364E36423656365A3651E
:10189000E36523666366A366E36623676367A367FE
:1018A000E367A364D1E7C0465344000053460000F9
:1018B000481200204C33000010210020C1180010F5
:1018C00007B5604601880A0A0230DF2AFAD1C9B298
:1018D000820804D3028840880004104300E00068B6
:1018E000014A5050039007BD481200205143434322
:1018F000C9188C46110C83B24B4310B4040C6143DD
:1019000092B280B2504362431C041B0C001910BCFD
:1019100059411304120CC018514161447047000032
:10192000132310B512481C78FFF722FE0100012C8A
:101930000AD003DD80220F4800F048F80E48FFF778
:101940000FFE0E4B186010BD0A4C5422200000F010
:101950003DF80B4B6365A365E36523666366A36689
:10196000E36623676367A367E3672362E361E5E7F1
:1019700053460000481300204C3300001021002083
:101980008519001007B5604601880A0A0230DF2A6F
:10199000FAD1C9B2820804D30288408800041043F7
:1019A00000E00068014A5050039007BD4813002032
:1019B00001480421014B18477010002081150010C8
:1019C000014B1B681847000070100020014B5B683A
:1019D000184700007010002010B5002800D110BD7D
:1019E00000F034F9FBE7C04610B5094A030014685B
:1019F00084B0002C08D0012200910648524203A96D
:101A0000A047012004B010BD00F06CF90020F9E7F8
:101A1000E4200020D919001000BEFDE710B5FFF743
:101A2000FBFFC04670B5FFF7FDFD074D074EB54201
:101A300009D20024013E761BB60808CD9847230042
:101A40000134B342F9D170BDF4450010FC450010DB
:101A5000030010B5080011001B68984710BDC04670
:101A6000F0B546464F46D646C0B5437D80460E008B
:101A70001700002B46D0002A3FDD4B1E9946244B11
:101A80000125002400209A460DE04B461B5D0D3BCE
:101A90005A425341325DDBB20A2A0BD02B0001348B
:101AA00001359F421ADD002CEFD14346325D1B7D8C
:101AB0000A2AF3D1002BF1D1A04204DA4346211ABD
:101AC0001B6830189847434650461B6802219847C8
:101AD000013428002B0001359F42E4DC874204DDFD
:101AE0004346391A1B6830189847F619013E337877
:101AF0000D3B5A42534142461375E0BCBA46B146CB
:101B0000A846F0BD0368110030009847F5E7C046CD
:101B100034470010F0B5DE4657464E464546E0B520
:101B200085B017001C0006000D00FFF767FB0023BF
:101B3000314A12184B41002B59DB304908008A46C4
:101B400002F01AFD01906B1C03D1300002F0A4FCDE
:101B50000500002C26D12A4B98462A4B1C68002CE5
:101B600015D0002F21D1284F02E02469002C0ED07F
:101B70002368002BF9D03B68002B01D0A342F4D19D
:101B800020002A003100C0472469002CF0D1019BBD
:101B9000002B28D1280005B0F0BCBB46B246A946B0
:101BA000A046F0BD194B9846D7E7174B994602ABB4
:101BB000DF1D0A239B4602E02469002CE7D023683E
:101BC000002BF9D04B461B68002B01D0A342F3D168
:101BD0002A0031002000C0475B4601223900200066
:101BE0003B70C047E8E7504602F096FCD2E701227E
:101BF000074B5242A1E7C04640420F00B8100020F8
:101C0000511A0010D81C0020E01C0020611A00109E
:101C1000FFFFFF7F0A4A1368002B05D10CE01A0072
:101C20001B691032002B07D09842F8D1002902D14D
:101C300003691360016170470029FCD01060FAE766
:101C4000D81C002010B500F08BFA10BDF0B5CE46C0
:101C5000474680B583B06B460600DD1D2870FFF750
:101C6000CDFA00231A4A12184B41002B2BDB1949DD
:101C70000800884602F080FC174B81461C68002C47
:101C800014D0164F02E02469002C0FD02368002BDB
:101C9000F9D03B68002B01D0A342F4D120000122EF
:101CA0002900FFF7DDFE2469002CEFD14B46002B05
:101CB00005D1300003B0C0BCB946B046F0BD4046C7
:101CC00002F02AFCF5E70122054B5242CFE7C0465D
:101CD00040420F00B8100020D81C0020E01C00205B
:101CE000FFFFFF7F70B5040002F0D6FB0123010067
:101CF000050001222000FFF70DFF084B1C68002C97
:101D000006D06368002B05D098472469002CF8D1D1
:101D1000280070BD2469002CF3D1F9E7D81C0020FD
:101D20007047C0460022014B1A70704736210020D0
:101D30004B790020FF2B0BD18B79002B08D1CB796D
:101D4000012B05D1082A03D98A78024B09301A7071
:101D50007047C046362100200120704710B5012988
:101D600009D115495379107909781B0203430020E2
:101D7000994202D010BD0120FCE75378012B08D016
:101D8000022BF7D1002064220021FFF795FB0120F0
:101D9000F0E7D37891781B021943DB0507D54A0A8F
:101DA000100001231A407E331940FFF70BFC01207D
:101DB0004A0A4042F5E7C0463621002000487047F5
:101DC0005847001070B5050014000120012909D101
:101DD00053780020012B05D1637912791B0213433C
:101DE000072B00D070BD21002800024A9F3301F06C
:101DF0004FFAF7E77C470010012303700048704753
:101E00003847001048780B788A780002184312048B
:101E100010439622CB7810B51B060343D2009342A1
:101E200000D010BD0022012011004042FFF7CAFB84
:101E3000024B1860024B19607047C046781C0020A6
:101E40007C1C002010B5024B1878FEF7C3FB10BDB8
:101E500037210020154B70B51A68002A22D0EFF305
:101E6000108172B610680028FCD0BFF35F8F00228B
:101E70000F48596002701B68BFF35F8F1A6081F3CF
:101E80001088002400250B4E3078FEF797FB0028C1
:101E900004D1002400252900200070BD3078FEF711
:101EA00099FBF8E7FA240025A400ECE7F0200020D5
:101EB000382100203721002070B5040000200E00DA
:101EC00001F008FB002835D0002001F01BFB0028A2
:101ED00030D0FFF793F90023184A12184B41002B1A
:101EE00024DB174D280002F047FB002822D00020F9
:101EF00001F0F0FA00280BD1012000210324404218
:101F000000F0F8FC6442280002F006FB200070BDDF
:101F1000002001F0F7FA0028EED021003200002066
:101F200001F0FCFA041EEED1033CECE70122054B64
:101F30005242D6E703246442E8E7C04640420F001D
:101F400018210020FFFFFF7F10B5FFF757F900238E
:101F50000E4A12184B41002B13DB0D4C200002F0EF
:101F60000BFB00280CD001200021404200F0C2FCF5
:101F7000002001F01FFB0028F5D1200002F0CCFA70
:101F800010BD0122034B5242E7E7C04640420F001A
:101F900018210020FFFFFF7FF8B5DE46574680B5C9
:101FA00005000C00FFF72AF90023364A12184B41AE
:101FB000002B5ADB344908008A4602F0DDFA00287B
:101FC00003D1C0BCBB46B246F8BD002001F082FA86
:101FD00000284ED00026002C43DD2C4B9B4614E0FD
:101FE000A919002001F022FB070001200021404236
:101FF00000F080FC002001F0DDFAFFF7FFF8234B32
:10200000F61918605960B4422BDD002001F030FB56
:10201000A71B0200B84200DD3A00002AE0D10120EF
:102020000021404200F066FC002001F0C3FA0020CD
:1020300001F050FA002814D0002001F019FB00280C
:10204000E1D1FFF7DBF85B460F001A685B680021FF
:1020500084460F4812184B419F4202D8D3D1944571
:10206000D1D9504602F058FAABE70122094B52424F
:10207000A0E700200021054B18605960504602F08F
:102080004BFA9EE740420F0018210020401200202A
:1020900020A10700FFFFFF7F30B52A4C85B000214B
:1020A000200002F059FA00281CD1274B1A68002A98
:1020B00016D0EFF3108172B610680028FCD0BFF381
:1020C0005F8F01242148596002781B68D2B20470E6
:1020D000BFF35F8F0020186081F31088002A17D0AB
:1020E00005B030BD01200021404200F003FC00207B
:1020F00001F008FA0500200002F00EFA002DEFD0E2
:10210000134B1B68002BEBD0124A10689847E7E787
:10211000FEF770FE0400FFF771F8FA220023920028
:1021200012184B41002B09DB012102910021019182
:10213000094920000091FEF761FED1E70122074B1B
:102140005242F1E718210020F02000203821002021
:10215000781C00207C1C0020551E0010FFFFFF7F14
:10216000D02310B51B0684B01C68FEF743FEFEF7B3
:102170003FFFA04202D0002004B010BD284B1B78C6
:1021800001F078FD27480368002B41D00120FEF7BD
:10219000B7FBFF23244C254920701840FEF738FA7E
:1021A00020780121FEF7F8F90520FEF71BFA002838
:1021B00021D1082200211E48FFF702FCFEF71AFE7B
:1021C0000400FFF71BF8FA220023920012184B417B
:1021D000002B20DB012102910021019115492000F3
:1021E0000091FEF70BFE0028C5DB13480121FFF725
:1021F00011FD0120C0E70120FEF79EF901000C4807
:10220000FEF7E4FB002205200C49FEF72BFAECE771
:10221000FEF7BEFBBAE70122094B5242DAE7C0469D
:10222000504A00101821002037210020992000106A
:10223000F0200020551E001080100020451E0010C8
:10224000FFFFFF7F00487047C448001000487047F8
:102250007048001070B5040017480378002B21D097
:10226000002C06D1C1241548154BA40043800480DE
:1022700070BD052C1DD8134B1048A400E558811CD7
:10228000002304E001330A800231132B0ED0EA5CF4
:10229000DCB2002AF6D1C0230134E4B264009B0012
:1022A0001C43E4E7112100F017F8D9E7CA24A40081
:1022B000DDE70020DCE7C04620210020B01C002024
:1022C00009040000D848001010B5024800F0D8F802
:1022D00010BDC0460821002030B54B1E012900D199
:1022E000A7E0664A11780D112C0030349F2900D9DF
:1022F000A2E00470012B00D1BEE00F211478214030
:102300000C003034092900DD98E04470022B00D124
:10231000B2E054782511290030319F2C00D990E08B
:102320008170032B00D1A7E00F2121400C00303435
:10233000092900DD87E0C470042B00D19CE094786B
:102340002511290030319F2C00D97FE00171052B28
:1023500000D191E00F2121400C003034092900DD2B
:1023600076E04471062B00D186E0D478251129004F
:1023700030319F2C00D96EE08171072B00D17BE0BA
:102380000F2121400C003034092966DCC471082B70
:1023900000D171E014792511290030319F2C5FD8CC
:1023A0000172092B68D00F2121400C00303409291B
:1023B00058DC44720A2B5FD0547925112900303142
:1023C0009F2C52D881720B2B56D00F2121400C002C
:1023D000303409294BDCC4720C2B4DD09479251173
:1023E000290030319F2C00D9073101730D2B43D0C8
:1023F0000F2121400C003034092901DD37310C0058
:1024000044730E2B38D0D1790C11220030329F2921
:1024100000D9073282730F2B2ED00F220A401100F1
:102420003731092A01DC30321100C173102B23D05F
:1024300010300023037030BD07345AE737310C00E9
:1024400063E707316CE737310C0074E707317DE74C
:1024500037310C0085E707318EE737310C0095E7FF
:1024600007319DE737310C00A3E70731AAE7373181
:102470000C00C4720C2BB1D1C018DAE7082100207F
:1024800030B5002589B004000922002101A800957B
:10249000FFF796FA0922002105A80495FFF790FAA4
:1024A0004B236A466846137004A90D2202F02CF8EB
:1024B0001521082220006944FFF788FA09B030BDD1
:1024C000F8B500F03DF90C23184DFF22AB6705204D
:1024D0001749FEF7C7F8174C402200212000FFF7EC
:1024E0006FFA4027002301262121134A66702783B3
:1024F000A260136063545F316184453963540F4AAD
:102500000F496360E2602787A1620B606362E26249
:1025100002F00AF880239B052E64EB649023094A9D
:10252000EA508022084B5202DA64F8BD00001150D4
:10253000F9040020E41C0020840010500001105019
:102540008000105010D001000020115010B5012162
:102550000520FEF721F810BD10B500220021024829
:1025600000F00EF910BDC046041D0020044B197088
:10257000002904D080219023024A8902D15070475B
:1025800032210020002011500B785B0602D14B78DD
:10259000052B00D070478A78014B1A60FAE7C046D5
:1025A00000001150F0B5C64600B54B790C791B02FE
:1025B00088782343CC787F21A4070140C509A20F66
:1025C0004F001400324E7A195201B2189070012057
:1025D0006840507000205B055B0DD0701383D4768B
:1025E0008046CA00012D33D02A48844688016244BF
:1025F0008446B4446046826040461060002933D06F
:10260000254AC90090466246414451603F223F330B
:102610009343022C00D15B0020487A1901685201D3
:10262000B218D1601E4ACB1803605140534080223B
:1026300088465201934228D84346A4061C4380236F
:102640007F197F011B06F6191C4373681C6011E09B
:1026500014488446880162448446B44460468262D9
:1026600040461060002909D100236D01761973607E
:102670000D4BF360012080BCB846F0BD084AC9008C
:102680009046624641445162C0E7FEF7C5FFD3E77A
:10269000E41C00208400105004001050EC200020A6
:1026A00000001050800010500001105010B501F0D3
:1026B0003BFF10BD10B57F200C0020404000E40916
:1026C000110000191A00034B4001C01800F058F81F
:1026D000012010BDE41C00207F22130010B50B4028
:1026E0000A420BD0C909802258004018064940010F
:1026F00040181201002101F057FF10BD02220348CB
:10270000C909521A8266EEE7E41C0020002011502D
:102710007F22100010B508400A4200D110BD0023EE
:10272000C909400040180449400108180022034923
:10273000C37001F039FFF1E7E41C0020FFF7FFFF51
:1027400080220A4B520410B51A60094B09491A60DD
:1027500010000B689843FBD18022002152010648EB
:10276000FFF72EF90922054B5A6710BD00E0004023
:1027700000F0004008C00040000010500000115060
:1027800070B5837E04000D001600002B17D10023C6
:10279000E38201332000A682A376256101F0D4FEF6
:1027A000002804D080219023084A8902D1502000BB
:1027B00001F0A2FE002805D00123237770BD01F0AF
:1027C000EBFEE4E7200001F0DFFEF7E70020115008
:1027D0007047C0467047C0460020704700207047D1
:1027E0007047C0467047C0467047C0467047C046F5
:1027F000024B5878431E9841C0B270479017002092
:10280000024B18784007C00F7047C0469017002051
:10281000F8B54746CE4680B52B4F80463B78012021
:10282000FF2B03D0C0BCB946B046F8BD00215422EE
:102830002648FFF7C5F80022254C264B20001A70C9
:10284000FEF7A6F8244B1C60244C20001430FEF741
:10285000ADF8200001F0DCFD214B224D1C60224B25
:10286000002B04D02800FFF7C7FA204B186020493E
:102870000024002389462A781C4E10E03268630148
:1028800094466344002B12D05B68002B0FD098470E
:102890002A780134E4B2511C2300A14209DBA24290
:1028A000ECD89B1A5B014B445B68002BEFD10020F6
:1028B000B8E7434640463B70FFF702FE4046FFF74D
:1028C00045FE0120AEE7C046B4100020901700205E
:1028D0004817002033210020E41700209810002022
:1028E000E817002031210020F91D00106414002099
:1028F000F4490010F0B5DE4657464E464546E0B571
:10290000C44B8BB01B78FF2B00D12EE1C24BC34DC3
:102910009A4607AC2E687269EFF3108172B613689D
:10292000002BFCD0BFF35F8FB1613000210001F0BC
:10293000B1FB7269B369BFF35F8F0021116083F34C
:102940001088002800D110E16378082BE2D85246A5
:102950009B00D3589F466368002BDBD0A068984744
:10296000D8E77F232179AE4E0B405800CA093618AC
:10297000B6183200012730321079B843107110793F
:102980000337B8431071002B00D1F7E0A54A337D1F
:102990001278934200D3E5E0A34A5B011268D31892
:1029A000002B00D1E1E09E6962792078A368B047EE
:1029B000B0E79E4A1378002B00D1D6E01378013B94
:1029C000DBB213701378002BA4D10122944B0121A8
:1029D0001B7893481343924A914E13703423D25C70
:1029E0008A43C254C25C04208243F2540133F25C35
:1029F0008A43F254F25C8243F254237800209B46CF
:102A000000F0AEFC602223791A40602A0DD0402AE3
:102A100000D1BEE0DB06DB0E012B00D10EE1022B64
:102A200000D1D0E0002B00D1BFE020780021FFF7DB
:102A300053FE80212078FFF74FFE6BE7784E337806
:102A4000DB0700D466E7FFF7D1FE63E7744BDB7862
:102A5000DB0700D45EE76068FFF7BCFE5AE7704E04
:102A60003378DB0700D455E730780007C00FFFF755
:102A7000BBFE4FE76E496B4E23788B466A499846FA
:102A8000894631003278002346460027884611E007
:102A90004A4612687B0194466344002B6CD0DB6885
:102AA0003000984743461A780137FFB2511C3B006B
:102AB0008F4241DC9742EBD39B1A5B015B44EEE70C
:102AC0005B49584E23788B465749984689463100D2
:102AD0003278002346460027884611E04A461268AD
:102AE0007B0194466344002B21D0DB68300098477B
:102AF00043461A780137FFB2511C3B008F4205DC78
:102B0000BA42EBD89B1A5B015B44EEE7444E542279
:102B100000213000FEF754FF1022FF21301DFEF788
:102B20004FFF30002022FF211430FEF749FF00F054
:102B30000DFCFFF757FEEDE6394E54220021300020
:102B4000FEF73EFF1022FF21301DFEF739FF300057
:102B50002022FF211430FEF733FF00F0F7FB23792A
:102B6000B370D7E6501C98420EDA0BB0F0BCBB46EF
:102B7000B246A946A046F0BD294EEEE7627920781C
:102B8000A36800F001FCC5E69B1A294A5B01D31833
:102B900009E7284800F0E4FB0121584608AAFFF79E
:102BA00011F9002800D0B5E63FE7202A00D14EE118
:102BB000002A00D039E76379092B00D935E71E4A8E
:102BC0009B00D3589F467023217A0B4200D02CE7FC
:102BD0007F26CB0998460E40114B76009B19434443
:102BE0001F7D104B1B789F425ED3581CB84200DA01
:102BF00049E1FF1A0E4B7F01DF19002A00D146E19F
:102C0000786900F0ADFB012158467B6908AA984716
:102C1000C7E7C046B41000204C490010E817002058
:102C2000901700203121002064140020332100205F
:102C3000F4490010C51D001070490010237A0F2BB5
:102C400000D9F2E6D64A9446D64A63441B791278F4
:102C5000934234D3511C994200DAE6E6D24E9B1AD5
:102C60005B01F618706900F07BFB0121584673691F
:102C700008AA9847002800D04CE660221600237965
:102C80001E401A4200D0D0E663790A3B012B00D9DE
:102C9000CBE600F065FB63790A2B00D150E1584682
:102CA00008A900F0DDFA35E6C04B7F011B68DF198B
:102CB000002A00D1EBE0002F00D1B6E6A0E7BB4A26
:102CC0005B011668F618002E00D1AEE6CAE7B44BD9
:102CD000A7795B789F42E2D0B14B5B78002B00D0A4
:102CE0006AE1AF4B5F70002F00D155E1781EC0B292
:102CF000FFF7ACFA002800D14AE143780493022B95
:102D000000D045E10121C279931152110B400A40D4
:102D100012015B011343A24A2F3112788A431343F5
:102D20009F4A137009239946C37882781B02134384
:102D3000C31802939D4B814498464F46029BBB4269
:102D400000D806E101227B7800920B2B04D1FB789E
:102D500000933B78FF187B78042B00D018E1029B8E
:102D6000B946DB1B9BB203938E4B1E7800231F00DA
:102D700001931BE0424612687B01D618002E00D159
:102D800006E149465846039A336998470590082852
:102D900003D9039A824200D3DEE0824B01371E78CA
:102DA000FFB2731C01979F4200DDF1E0BE42E1D803
:102DB000019B9E1B7C4B76019C466644E1E7784B69
:102DC00006AA5B78023213705846012308A900F066
:102DD0005FFA9FE5E088030AC0B20F2B00D924E612
:102DE00073499A008A58974608A800F0BFFA5846D7
:102DF000A179FFF7B1FB0222694B1B781343684AA4
:102E0000137087E5E388012B00D00EE60822644B9F
:102E10001B789343624A137041E70220604B197894
:102E200006AB9A1C8B068908DB0F01400B4313800D
:102E30005846022308A900F02BFA6BE5E388012B22
:102E400000D0F2E50822564B1B781343E2E7237AC1
:102E50000F2B00D9E9E5524A9446524A63441B7944
:102E60001278934227D2514A5B011668F618002E59
:102E700000D1DAE5706900F073FA012158467369F0
:102E800008AA98478DE60027002A00D0CDE5022247
:102E9000637999469343012B16D04B46002B00D003
:102EA000C3E53F4B06AA9B19434430331B790232DA
:102EB0009B07DB0FBBE7511C994200DAB5E53A4EA0
:102EC0009B1A5B01F618D5E7E388002B12D14B461D
:102ED000012B24D0374B1878FFF7FEFB0221304B33
:102EE0009B19434430331A790A4301211A711A7924
:102EF0000A431A71002F00D10CE5786900F030FA0E
:102F00007B6908AA012158469847002000F028FA5A
:102F10003523234AD35CDB0700D5FBE4BFE6254B12
:102F20001878FFF7F5FB02211D4B9B194344303302
:102F30001A798A4349461A711A798A431A71D9E76C
:102F400006AB9A1C5846012308A9167000F0A0F998
:102F5000E0E4FFF745FCA2E63B004F469946009BA4
:102F6000012B00D189E0009B002B75D000234E4639
:102F7000B97805E016710133009ADBB293426AD248
:102F800007485A188446D2B262441079FF28F1D01B
:102F90000023034A537048E5FFF724FC7FE6C04650
:102FA0009017002031210020F44900106414002003
:102FB00098490010B410002000215846FFF7D6FAB7
:102FC0005846FFF773FB454B454E9B7845490093A8
:102FD000894600233100327888461E0011E04A46B7
:102FE0001268730194466344002B22D0DB68584674
:102FF000984743461A780136F6B2511C33008E4288
:1030000007DCB242EBD89B1A374A5B019446634413
:10301000ECE7542200213148FEF7D2FC2F4B10225E
:10302000FF21181DFEF7CCFC2022FF212F48FEF7C0
:10303000C7FC2A4B009A9A7053E6FEF7BFFE021EA9
:1030400000D1F2E4D37891781B020B43584608A9CB
:1030500000F01EF9A5E5B146059E4B463200390049
:10306000224800F08DFEB4461D4B019A1B78674440
:103070000133934200DB61E68AE71D4B32699A42D5
:1030800000D073E7049B009370E7FFF7A5FB021ED7
:1030900000D1CAE45846137808A900F0F9F880E591
:1030A0002189FFF7D7F8021EF4D1BEE4022B0FD01E
:1030B000FFF794FB021EC5D1B7E4FFF7C3F8021E69
:1030C00000D1B2E41223584608A900F0E1F868E5FF
:1030D000FFF7BCF8021EB5D1A7E4C0469017002048
:1030E0003121002064140020F4490010A4170020AE
:1030F00075370010F8B557464E46DE4645460C007B
:10310000E0B516001F00002A3CD0702398461E4BE5
:1031100000259B461D4B9A461AE05B461B78200013
:1031200099465346997800F0EFFD00281CD0210005
:103130004846FFF737FA002816D0A378DA09012AA3
:1031400019D00A9A013513702378E418B54219DAB8
:103150006378052B08D1E3789B079B0FBB4203D113
:103160004246A3781A42D8D00020F0BCBB46B246F3
:10317000A946A046F8BD0B9A013513702378E418D0
:10318000B542E5DB0120F0E7B410002090170020E5
:10319000702270B58B780C001A4201D0002070BDEF
:1031A000064B20001D78064B997800F0ADFD0028F5
:1031B000F4D021002800FFF7F5F9F0E7B410002063
:1031C00090170020074B080019687F2310B50340B3
:1031D000C0095B0034301818034B181800F050FD7C
:1031E00010BDC046E417002090170020074B0800D0
:1031F00019687F2310B50340C0095B0034301818EC
:10320000034B181800F064FD10BDC046E417002001
:10321000901700207F2070B508400F4C4000CD096A
:1032200024186419303425790020ED0700D570BDCD
:10323000012625790948354300782571FFF73AFAC8
:103240000028F4D101222379934323712379033297
:1032500093432371EBE7C04690170020B410002081
:1032600070B50A4E0500300008220C00FEF7AEFBD8
:1032700000237F21F3602278B36091425B412800F4
:10328000D90100220023FFF7C5FF70BD34170020CD
:10329000F8B5CE46474691462A4E80B5082207002B
:1032A00030000D009846FEF791FB4B46B3600023BB
:1032B000F381EC79A97924020C43231C444500D9FD
:1032C00043469AB29046B381002C13D0002A1FD0F7
:1032D0004B46002B34D0131C402A1FD89BB2984673
:1032E00033787F2B20D80021174A43463800FFF758
:1032F00091FF09E07F222B7838009A426441002335
:103300000022E101FFF786FFC0BCB946B046F8BD18
:1033100033787F2B11D980210022E6E740239BB22E
:10332000984633787F2BDED9074C42464946200029
:10333000FEF74CFB80212200D7E700210022D4E7D2
:103340000020E1E7341700205017002010B51422A8
:1033500000210248FEF734FB10BDC04634170020A0
:10336000014B18617047C0463417002010B5054C5A
:10337000010008222000FEF729FB0023A360E36080
:1033800010BDC04634170020F8B5394C1D00237815
:103390000600DA09C9098A4210D00020002D00D0A9
:1033A000F8BD21003000FFF7EFF82369002B42D071
:1033B00022000321300098470120F1E77F2B06D837
:1033C000A068002839D02A002A49FEF7FFFAA3682E
:1033D000E28959195219E38892B2E281A1609342BD
:1033E00014D03F2D12D9A589A81A071C80B24028F5
:1033F0002FD82378BFB27F2B2DD80021AA4235D0F9
:103400001C4A3B003000FFF705FFC9E72369002B8A
:1034100005D0220002213000984700280FD07F22DB
:103420000021237830009A42494100230022C9013B
:10343000FFF7F0FEB4E70120B2E70020B0E700217B
:103440003000FFF749F930008021FFF745F90120EE
:10345000A6E74027CDE7AA4207D0064C3A00200055
:10346000FEF7B4FA80212200CBE780210022C8E7D2
:10347000341700205017002070B50400FFF7B8F98A
:10348000002800D170BDFFF7BBF90028FAD1E3781E
:10349000002BF7D025001035280000F0E5FD3F286F
:1034A000F0D90020E178FFF78DFE0028EAD028004F
:1034B00000F0DAFD3F2808D992239B00E218E1785A
:1034C00040230020FFF7A6FEDCE7E1780020FFF7AD
:1034D0008DFED7E710B50400FFF78AF9002801D167
:1034E000002010BDFFF78CF90028F9D1B220800030
:1034F000444303480019037901201840F1E7C0460E
:103500006C140020B2239B00584310B5024B1030BE
:10351000C01800F08BFD10BD6C140020F0B5B22671
:10352000B60046433500C6461F4F204B10350400F9
:1035300000B57D199A4200D91D4A280092B200F0C8
:10354000F9FD8046FFF754F9002803D1404680BCBE
:10355000B846F0BDFFF754F90028F7D1B2239B001D
:103560005C433C19E378002BF0D0280000F07CFD90
:103570003F28EBD90020E178FFF724FE0028E5D0B2
:10358000280000F071FD3F2809D992239B00F21812
:10359000E1784023BA180020FFF73CFED6E7E17837
:1035A0000020FFF723FED1E76C140020FEFF00008F
:1035B000FFFF0000F8B50400FFF71AF9002801D159
:1035C0000020F8BDFFF71CF90028F9D1B2208000D7
:1035D00044432500144E2435AD19280000F026FD83
:1035E0000028EDD037190020B978FFF7EBFD00284F
:1035F000E6D0A2239B009C466444A4192100280025
:10360000402200F097FDB978051E08D00300220083
:103610000020FFF7FFFD0028D2D02800D1E70020CE
:10362000FFF7E4FDCCE7C0466C14002070B5B2246F
:10363000A40044430B4B2434E4180B4B05009A427E
:1036400000D90A4A200092B200F02EFE06002000A7
:1036500000F0ECFC3F2801D8300070BD2800FFF7D7
:10366000A9FFF9E76C140020FEFF0000FFFF000037
:10367000B2239B00584310B5024B2430C01800F011
:10368000F3FC10BD6C140020B222F0B500251B4CD9
:1036900083B0002120009200FEF792F9184B80269B
:1036A0001D70FF236371E1235B02A36021000823E7
:1036B00020007600A373320038310095073B1030AC
:1036C00000F07CFC21000123200039313200FF3161
:1036D0000093243000F072FC8E239B00E718380022
:1036E000FDF756F990239B00E6183000FDF750F9DE
:1036F000E56127622663656303B0F0BD6C140020AA
:1037000068140020074B1A6A196B002A02D00022A5
:10371000DA611A62002902D000221A635A6301207A
:103720007047C0466C14002070B50F4C0522002174
:103730002000FEF745F90D4D2B78DA0707D50C4C24
:103740009B070CD50121200000F082FE70BD2000F7
:10375000103000F05DFE2B78054C9B07F2D4200062
:1037600000F056FEEEE7C0466C14002068140020FE
:1037700090140020F0B5C64600B54B79060082B023
:10378000022B02D18B79022B05D00025280002B034
:1037900080BCB846F0BD224FBB78002BF5D18B78AA
:1037A00009253B700C780C196378242B0BD1082A5F
:1037B00002D80FE0AA420DD32378E418ED186378FD
:1037C000ADB2242BF6D0052B08D0042B02D163799F
:1037D0000A2B11D03800FFF74FFED7E72100300049
:1037E000FFF7D6FC0028D0D0A3787B702378ED18A3
:1037F000E4186378ADB2E8E7237821009846094BD6
:103800000222019301330093300002234144FFF769
:1038100071FC0028B9D00E354544ADB2DAE7C04698
:103820006C1400206E140020F8B560231400127888
:10383000050013400020202B12D12F4A63792779ED
:1038400016781B023B439E420AD16378222B28D074
:1038500007D8202B17D0212B02D101293ED00120DF
:10386000F8BD232BFCD1012940D00329F7D1234BEC
:10387000002BF4D0E178A37809020020194300E07E
:1038800000BF0120ECE7012928D00329E7D11C4B18
:10389000002BE4D0083200201100FEF7B3FA01201B
:1038A000DEE7012922D00329D9D101252E00A378F2
:1038B000E478023924021C4314712640243210009B
:1038C000714000F0C5FD0F4B002BC8D062080020EE
:1038D00031002A4000E000BF0120C1E7072321009A
:1038E0002800094AFFF7D4FC0120B9E7210028008D
:1038F000FFF7B6FC0120B3E76C14002000000000C5
:10390000051E00100000000074140020F0B54F46A2
:103910004646D646C0B5364D8046EA780C001F00B4
:103920008A425DD19AB292239B00EE1810239A46E8
:10393000AA443100504600F0B7FC2E4B002B17D0A4
:103940006B79FF2B14D0002F12D0F219914603E0AF
:1039500001364E450CD06B7932789A42F8D15046F8
:1039600000F07AFB0028F3D1697900E000BFEFE7AF
:10397000214B002B04D0214800F06EFB002834D0EE
:103980002800FFF779FDAB78A34206D00124200080
:10399000E0BCBA46B146A846F0BD194B002B02D098
:1039A000002000E000BF0020FFF704FE0028EDD15A
:1039B000144D280000F03AFB0028E7D1002FE5D095
:1039C000BB06E3D1243D4046A978FFF7FBFB041E6C
:1039D000DCD0002300224046A978FFF71BFCD6E785
:1039E000AB788B42D9D00024D1E700E000BFC7E715
:1039F0006C14002000000000000000007C14002077
:103A00000000000090140020B32270B5144C84B064
:103A1000002120009200FDF7D3FF231D0293230015
:103A2000200080254026CD336D00FF33A930009360
:103A300000220023002103960195FF3000F0BAF91F
:103A4000230020004433A8340293012200230021E4
:103A5000039601950094843000F0ACF904B070BD79
:103A6000AC18002010B5054C200000F0D9F920005A
:103A70002538FF3800F0D4F9012010BD541A002079
:103A800010B5064C00232000B1302370FF3000F049
:103A9000BFFC20008C3000F0BBFC10BDAC18002037
:103AA000F0B54E464546DE465746E0B54B79814671
:103AB000884683B0FF2B27D1AA23454FFF33FE5CF6
:103AC000253B0C78FF3BFB5C4444A5181E431BD1EF
:103AD000D82252009246253AFF3A93468B78BA4450
:103AE0003B700B79BB44002B0AD06378052B05D1C2
:103AF00012E02378E4186378052B0DD0A542F8D89E
:103B00004346E01A80B200E0002003B0F0BCBB46A0
:103B1000B246A946A046F0BDA542F1D921004846CB
:103B2000FFF736FB0028EFD0A3780136F6B2DB09A9
:103B3000012B2AD0504600F06BFCAA23A278FF3359
:103B4000FA54244A6379944621791B020B435B059E
:103B5000D4215B0D63445A425341022049007A5CF0
:103B60005B00824313437B5451464846083900F0BA
:103B7000B7F90028C8D02378E41843461B79B3422C
:103B8000B3D84346E01A80B2BFE7584600F040FC85
:103B90005A468523A1788C3AD1540E4963798C46D4
:103BA00020791B0203435B055B0D634459424B4183
:103BB00084215B0001930223505C9843019B0343E3
:103BC000535459460020083900F058F9D3E7C0464D
:103BD000AC18002000FEFFFFF8B5AA2506001F481C
:103BE000FF35455D1F008D4216D08523C35C002440
:103BF0008B420FD11A4B002B04D039040020090C42
:103C000000E000BF174D3000290000F037F9012413
:103C1000002814D02000F8BDDA235B00C35A002B23
:103C200013D1114B002B04D000201049BAB200E090
:103C300000BF30000E4900F053F90124EAE73A00D2
:103C40002900300000F0EEF8E4E7D6235B00C1580D
:103C5000B130BAB2FF3000F027FBE2E7AC18002029
:103C6000000000003019002000000000B018002003
:103C7000541A002010B50020FEF7CAFD10BDC04642
:103C8000037870B5DB0704000E00DD0F002B17D1A1
:103C900003785B0701D5280070BD0121300049423F
:103CA00000F062FC2378DB07DD0F002B0AD12378BC
:103CB0005B0708D40422237801251343237002E014
:103CC0000025E8E70025300000F026FCE3E7C046C9
:103CD00070B50D00012104004942280000F044FCA9
:103CE00023785B07DE0F002B04DB280000F014FCB8
:103CF000300070BD2378DB0704D40422237893437B
:103D00002370F2E70026F0E710B5437904791B022F
:103D100023435B055A0DC3789B079B0F022B05D0ED
:103D2000032B15D00020012B08D010BD02291CD078
:103D30000020402393424041C0B2F6E702394B4293
:103D400059410D4B9C46614491424041C0B2ECE761
:103D500002394B425941F023002049429B0019404F
:103D6000403191424041C0B2DFE7044BD3185A4280
:103D70005341D8B2D9E7C046FF03000000FEFFFF61
:103D80008A1870B5914207D27F264C78052C04D052
:103D90000C7809198A42F8D870BD34008D782C400F
:103DA00064000419ED0963550C7809198A42ECD8AE
:103DB000F2E7C046F0B5C64600B582B0150008AAC5
:103DC00040CA040017880BAA1288012090460A00F6
:103DD00021780240814320001143217000933A0072
:103DE00001233100083000F0E9F8002E01D0002F47
:103DF00008D10A9B012063604346638002B080BC07
:103E0000B846F0BD26001C363000FCF7C1FD00238B
:103E1000002D01D0330000266361A661E9E7C046AA
:103E200001207047F8B5E023070008000C785B001C
:103E3000A407E4171C4008300D0016003F3400F0C2
:103E4000F5F8002807D1002E05D0344203D1012413
:103E50002B781C4201D00020F8BD38006978FFF7AC
:103E6000B1F90028F7D02B781C42F4D100230022AE
:103E700038006978FFF7CEF9EEE7C046F8B50D00D7
:103E80000835060028000C0000F0D0F8002803D008
:103E9000012723781F4201D00020F8BD300061784F
:103EA000FFF790F90028F7D028006288616800F0D9
:103EB00041F92378051E0BD01F42EDD10300626843
:103EC00030006178FFF7A6F90028E5D02800E4E784
:103ED0001F42E1D130006178FFF788F9DCE7C04686
:103EE000F8B5CE46474680B58B8906000C00002BFE
:103EF00008D101250B781D4241D00020C0BCB94635
:103F0000B046F8BD0B789B0734D440235B429946FA
:103F1000402527000837380000F0A6F8A842ECD367
:103F20000122237890461A42E7D130006178FFF7EA
:103F300049F90028E1D0380000F096F8424623788D
:103F4000854231D81A42D8D14B4662881840051CA8
:103F500080B2904200D9151CADB200226178002DCC
:103F600000D062682B003000FFF754F90028C4D05D
:103F70002800C3E78025104BAD009946C9E7497872
:103F8000FFF720F90028B8D023781D42B5D1638807
:103F900000226178002B00D062683000FFF73AF908
:103FA0000028AAD06088A9E71A42A6D1300061781B
:103FB000FFF71CF9A1E7C04600FEFFFFF0B5C646BB
:103FC00000B5040006A805788020884617001E006A
:103FD0000002824227D8E068002803D0012149422C
:103FE00000F0C2FA2069002803D00121494200F004
:103FF000BBFA4346236073045B0CED031D430023AF
:10400000E0686381A780E5802381002801D000F06B
:1040100083FA20690124002801D000F07DFA2000F5
:1040200080BCB846F0BD0024F9E7C04610B504894D
:1040300041898288A3B288B28C4207D31B1A9BB2F3
:10404000101C9A4200D9181C80B210BD5100091AE8
:104050005B189BB2F4E7C046030000895B89C01A75
:1040600043425841C0B2704710B5048941898288E3
:10407000A3B288B28C4207D31B1A9BB200209A428B
:1040800001D9D31A98B210BD5100091A5B189BB21E
:10409000F4E7C04670B5040000690E00002803D0A4
:1040A0000121494200F060FA25896089A288A9B2FD
:1040B00083B285422CD3CD1AADB2002D2ED0AA42A8
:1040C00008D2914231D38B1A9BB263819A4203D8B2
:1040D0009B1A9BB29A42FBD9E28821685204520C87
:1040E00053433000C918FDF771FC618901254B1C51
:1040F0009BB2A288994214D9002352009B1A9BB20A
:1041000020696381002801D000F006FA280070BD04
:104110005500ED1A4D19ADB2002DD0D1002563899F
:104120009BB252009342EBDBE8E789188BB26381C4
:10413000CCE7C046F0B546464F46D646C0B5060069
:10414000006989469046002803D00121494200F0C9
:104150000BFA31897289B5888BB294B2914257D3E8
:104160001F1BBFB2002F4DD0BD4205D2AB4254D26F
:104170005B199CB22F0074814346B84540D89FB26A
:10418000A54203D8641BA4B2A542FBD9F288281B20
:104190005204530C19009846336861439C4680B220
:1041A0006144874226D94346584383B21A004846A1
:1041B0009A46FDF70BFC434648467D1B64195C4359
:1041C00031685044A2B2FDF701FC7189B588CB1962
:1041D0009BB26A00994217D99B1A9BB230697381CE
:1041E000002801D000F098F93800E0BCBA46B1468A
:1041F000A846F0BD424648467A43FDF7E7FBE4E7B0
:104200003B1CBCE773899BB26A009342E6DBE3E7A1
:104210006F003F1BDF19BFB2A4E75B1B9CB2A9E78D
:10422000F8B50400C0680E00002803D001214942FF
:1042300000F09AF9258920896189A288ADB283B2FC
:104240008FB2884228D3DB1B9BB29A4209D8E77908
:10425000FF0906D1E068002801D000F05DF93800C0
:10426000F8BD2B00954203D39B1A9BB29342FBD21D
:10427000E28821685204520C5343C8183100FDF7FC
:10428000A5FBA2886B1C9BB252009D4209D99B1AC8
:104290009BB201272381DDE75100C91B5B189BB24C
:1042A000D3E79342F5DBF2E7F0B54E464546DE46EE
:1042B0005746E0B589460500140083B0002A6ED049
:1042C000C068002803D00121494200F04DF92F8930
:1042D000EA796B89BFB29BB2D20942D1AE889F42C4
:1042E00067D27200D31AFB189BB2002290469E42FE
:1042F00031D9F31A1A1C9BB2A34200D9221C93B2E3
:104300009846E8884346DB199BB29B463C00BE4278
:1043100003D8A41BA4B2B442FBD24004430C18003F
:104320009A462B6860439C46311B89B260444145E4
:104330004ED35246434649465A43FDF747FBAB88A6
:104340005B00BB4501D39B4503DB5A46D31A9BB2A6
:104350009B465B462B81E868002822D000F0DCF801
:104360001FE0AA889046944226D29F4244D34146F9
:10437000FA1A92B2490012198A4209DB42469A1887
:1043800092B2171BBFB29346BB423AD97F1ABFB253
:10439000E3199BB246469B46A046E888B6E7002351
:1043A0009846404603B0F0BCBB46B246A946A0467C
:1043B000F0BDFB1A9BB298E7E888A21A4404640C8B
:1043C00054434246A144002AC5D046461F0099E7FF
:1043D0005346594389B20A0001914946FDF7F6FA5E
:1043E00043469A1B5346A2185A430199286892B231
:1043F0004944FDF7EBFAA2E75100CA1ABA1892B283
:10440000B9E7B942C2DD4646E888A0467EE7C04625
:1044100010B50400C068002803D00121494200F013
:10442000A3F82069002803D00121494200F09CF83C
:104430000023E06863812381002801D000F06CF83C
:104440002069002801D000F067F8012010BDC046A7
:1044500070B50400C0680D00002803D00121494256
:1044600000F082F82069002803D00121494200F0C1
:104470007BF87F21E379ED011940E0682943E17180
:10448000002801D000F048F82069002801D000F091
:1044900043F8012070BDC04610B583070AD0030061
:1044A000032102E001330B4205D01A78002AF9D12A
:1044B000181A10BD030019680C4A0D4C8A188A435B
:1044C00022420FD15968094A04338A188A4322428A
:1044D00008D15968054A04338A188A432242F1D028
:1044E00000E001331A78002AFBD1E1E7FFFEFEFE6F
:1044F00080808080F8B5C04601B40248844601BC83
:10450000604700BF450C002001B40248844601BC4E
:10451000604700BFD102002001B40248844601BCBC
:10452000604700BF3102002001B40248844601BC4C
:10453000604700BF9503002001B40248844601BCD7
:10454000604700BF710F002001B40248844601BCDF
:10455000604700BF1D0C002001B40248844601BC26
:10456000604700BFC100002001B40248844601BC7E
:10457000604700BFA101002001B40248844601BC8D
:10458000604700BF0501002001B40248844601BC19
:10459000604700BFD50C002001B40248844601BC2E
:1045A000604700BF790C002001B40248844601BC7A
:1045B000604700BF850C00204D16001079160010D2
:1045C000C5170010B1190010211800102119001092
:1045D000ED16001095160010B5160010C916001043
:1045E00039090010D1160010190D00101516001011
:0C45F00075050010FD020010C92200102B
:1045FC0068656C6C6F2C20626567696E6E696E679E
:10460C0020000000676F696E67204849474820000A
:10461C00676F696E67204C4F572000000A2A2A2AC0
:10462C002050414E4943202A2A2A0A000A00000041
:10463C004E6F207370696E6C6F636B732061726563
:10464C0020617661696C61626C6500004E6F20754B
:10465C0073657220495251732061726520617661D5
:10466C00696C61626C6500004861726477617265A7
:10467C0020616C61726D20256420616C72656164CF
:10468C007920636C61696D65640000004861726437
:10469C00206173736572740052656C65617365009B
:1046AC00626F6F74325F77323571303830000000D2
:1046BC00322E312E300000007069636F0000000054
:1046CC006D61696E00000000466562202037203263
:1046DC003032350005005250DE65F468545A001033
:1046EC00060052505422A29DD4460010060052508F
:1046FC00861C0302CC46001006005250BBFF3CB691
:10470C00C446001006005250ABB36053BC460010B8
:10471C0006005250E182887FAC46001006005250D1
:10472C00D3F07542A44600100D0A000000000000F2
:10473C00211D001000000000251D0010311D00106F
:10474C005D1D0010591D001000000000050F210018
:10475C00011C100500DF60DDD88945C74C9CD26573
:10476C009D9E648A9F00000306A6000100000000C5
:10477C000A00000000000306A60008000200020068
:10478C009C001400030057494E5553420000000092
:10479C00000000000000800004000100280044001C
:1047AC006500760069006300650049006E007400C6
:1047BC0065007200660061006300650047005500EB
:1047CC004900440000004E007B006200630037008B
:1047DC00330039003800630031002D0037003300FE
:1047EC00630064002D0034006300620037002D006C
:1047FC0039003800620038002D00390031003300D8
:10480C0061003800660063006100370062006600DA
:10481C0036007D000000000055534220737464691B
:10482C006E202F207374646F757400000600525054
:10483C0053B4F4A124480010526173706265727213
:10484C0079205069000000005069636F000000007F
:10485C00426F6172642043444300000052657365EB
:10486C007400000009025400030100807D080B0055
:10487C0002020200000904000001020200040524E7
:10488C000020010524010001042402060524060071
:10489C00010705810308001009040100020A000049
:1048AC0000070502024000000705820240000009D3
:1048BC0004020000FF00010512011002EF0201408A
:1048CC008A2E0A0000010102030100000000000012
:1048DC004448001054480010202100205C4800106F
:1048EC0068480010556E68616E646C6564204952AE
:1048FC005120307825780A006570202530325820F8
:10490C0077617320616C726561647920617661698D
:10491C006C61626C6500000043616E277420636FEC
:10492C006E74696E75652078666572206F6E20698D
:10493C006E6163746976652065702025303258008D
:10494C0014290010742A0010C02A00104C2A0010E0
:10495C005E2A00103C2A0010B229001062290010B7
:10496C00562900101A2E0010042E00102A2A0010AE
:10497C003C2E00102A2A0010E82D0010D42D001017
:10498C002A2A0010BE2D0010CE2C00102A2A00104E
:10499C00BA300010AC300010A03000102A2A0010E1
:1049AC002A2A00108A300010AC3000102A2A00107D
:1049BC002A2A00102A2A00102A2A00102A2A00105B
:1049CC002A2A00102A2A00103A300010BA0D0020B2
:1049DC00BA0D00209C0D0020100E0020200F00208E
:1049EC00340F0020040E0020000000008936001057
:1049FC0005370010293700107537001029380010C2
:104A0C000D3900100000000000000000093A0010F1
:104A1C00653A0010813A0010A13A0010C51D001033
:084A2C00D93B0010000000005E
:104A3400E0460010EC460010F84600100447001051
:104A4400104700101C470010284700103848001079
:104A540003000068EFF3108C72B60268002AFCD0E1
:104A6400BFF35F8F04229A56002A0BDB00290FD074
:104A740000200A601B68BFF35F8F00221A608CF36A
:104A840010887047D0221206126801201A71F1E7CB
:104A94000020EFE7F0B5C646150000B504001E007F
:104AA4000268EFF3108172B61368002BFCD0BFF3D9
:104AB4005F8F0423E356002B2DDB2268BFF35F8F47
:104AC4000020106081F31088D0221206127852B2AE
:104AD40090469A4203D1002080BCB846F0BD00271E
:104AE4000BE02368BFF35F8F1F6081F310882800F9
:104AF400310000F031FF0028EDD12268EFF310817E
:104B040072B61368002BFCD0BFF35F8F23797F2B21
:104B1400E7D9434602E0D0231B061B6823712368B0
:104B2400BFF35F8F00221A6081F310880120D3E75E
:104B3400F0B5C64600B50D00040000F01DFFFA22D2
:104B440006000F00002328000021920000F0F4FE6C
:104B540036184F41002F2CDBD0231B061B68002581
:104B640098460BE02368BFF35F8F1D6081F31088C4
:104B74003000390000F0F0FE002818D12268EFF36D
:104B8400108172B61368002BFCD0BFF35F8F2379BA
:104B94007F2BE7D9434623712368BFF35F8F00223D
:104BA4001A6081F31088012080BCB846F0BD002053
:104BB400FAE70126014F7642CEE7C046FFFFFF7FAA
:104BC4000268EFF3108172B61368002BFCD0BFF3B8
:104BD4005F8FFF2303710368BFF35F8F00221A60A6
:104BE40081F3108840BF704710B5084C2378002B20
:104BF4000AD18023064807495B051A68C25004336A
:104C04008B42FAD10123237010BDC0463421002009
:104C1400781B00100001001010B5024B01339847B7
:104C240010BDC046781B0020034B1A68C0239B00AC
:104C34009343024A136070470C8001400C9001407A
:104C4400054B1A6880239B005340C02292001340F6
:104C5400024A13607047C0460C8001400C9001402A
:104C64001423F0B5D6464F4646469A4681461888E0
:104C74000433C0B598460E001B8827491400984792
:104C8400534607001888434624491B8898475346CF
:104C940005001888434622491B8898478046FFF739
:104CA400A3FFB847A847FFF7CBFF002C1BD0C021B8
:104CB40022000827022049053D008B6A1D40184246
:104CC4000BD0002C09D0131B0D2B1FD84B461B787F
:104CD400013C0B6601239C46E1442300002D0CD1CA
:104CE4001343002BE8D1FFF79FFFC047FFF794FF62
:104CF400E0BCBA46B146A846F0BD002AF1D00B6E1E
:104D0400013A3370130001362343EAE7002DD3D070
:104D1400002AD1D0F3E7C0464946000045580000B8
:104D24004643000000231C4A10B59360D3601B4A1D
:104D340000219360D3601A4A1A489360D3601A4AD8
:104D44009360D360194A9360D360194A9360D36027
:104D5400184A9360D360184A9360D360174A9360EB
:104D6400D360174A9360D360164A9360D360164A9F
:104D74009360D360154A9360D360154A9360D360FF
:104D8400144A9360D360F022920000F0BDFD124BF0
:104D9400124A1A6010BDC04600001050080010509E
:104DA40010001050241D0020180010502000105036
:104DB400280010503000105038001050400010509F
:104DC400480010505000105058001050600010500F
:104DD4006800105070001050EC200020800110502A
:104DE400F0B55746DE464E464546E0B5234B87B000
:104DF4009F6D002F23D0224B00249946012398460F
:104E0400204B01269A4604E001347600E4B2202CBB
:104E140015D03E42F8D04B469E65434665086D006A
:104E2400A343ED186D015544280000F051FC0028FF
:104E34000CD10134B743E4B27600002FE7D107B0B8
:104E4400F0BCBB46B246A946A046F0BDAB780822EA
:104E54009B46EB8A002103A8019300F055FD07232C
:104E6400594602AA5371019B117203A801210593AB
:104E740000F04EFC280000F0C7FBDAE700001150F8
:104E840000301150E41C00209823F0B54646D64665
:104E94004F46CD4AC0B5D55880232C009B0210261E
:104EA40084B01C401D4278D0C84BC94C9A6AC94B87
:104EB40000261A603B23E35C022B00D110E17B2324
:104EC400E35C022B00D12EE1BB23E35C022B00D177
:104ED40017E1FB23E35C022B00D197E13C23FF3372
:104EE400E35C022B00D15AE17C23FF33E35C022B09
:104EF40000D13FE1BC23FF33E35C022B00D124E16A
:104F0400FC23FF33E35C022B00D11FE2B24BE35CD2
:104F1400022B00D106E2B14BE35C022B00D1EDE1A0
:104F2400AF4BE35C022B00D1D4E1AE4BE35C022B2C
:104F340000D1BBE1AC4BE35C022B00D1A2E1AB4B53
:104F4400E35C022B00D189E1A94BE35C022B00D185
:104F54006EE1A84BE35C022B00D10CE2002E08D1D9
:104F6400A54B1B78002B04D18021A44A90338902DD
:104F7400D15001AE944B0C22002130009C6C00F007
:104F8400C3FC03236405640D737030000294012193
:104F9400802400F0BDFB9A4EA402EB0600D593E0FA
:104FA40080235B021D4237D01C4300239846023302
:104FB4009946944B864E9A46B37E002B17D04B46A7
:104FC40042469F1A00F0D0FC012800D980E0C0229C
:104FD40000213000920100F01DFB300000F014FBB2
:104FE40000F0C2FC012802D9844B5F661F660123CE
:104FF400F37043462036012B23D1C023824ADB00C1
:10500400019302AB03CA03C3012101A800F080FB92
:1050140080227A4B92021A6580235B011D4213D1D0
:105024008023DB011D4229D180231B021D4239D17B
:10503400AC4200D0B9E104B0E0BCBA46B146A846DF
:10504400F0BD01239846B7E700221C435E4B01AE36
:105054001A60FFF767FE0C220021300000F054FCB8
:10506400012301217370300000F052FB8022634B56
:1050740012031A658023DB011D42D5D001AE0C2238
:10508400002130001C4300F03FFC04230121737015
:10509400300000F03DFB1022584B1A6580231B02A0
:1050A4001D42C5D001AE0C22002130001C4300F08B
:1050B4002BFC052301217370300000F029FB8022B2
:1050C4004E4B12011A65B3E7FFF78AFE340067E717
:1050D40053463D4A1F66536E3B40BB42FBD176E7C5
:1050E4003833E65C002E00D1E9E60233E25C002AA4
:1050F40000D1E4E600222000E254203000F0B2FAAD
:10510400DDE6B833E35C002B00D1E2E6BC22A15C0F
:105114001E00002900D1DCE600232000A354A030A7
:1051240000F0A0FAD5E67833E35C002B00D1CBE69F
:105134007C22A15C1E00002900D1C5E600232000CA
:10514400A354603000F08EFABEE6B933FF33E35C5B
:10515400002B00D1D4E6DE225200A15C1E000029FF
:1051640000D1CDE620000023A130A354FF3000F08D
:1051740079FAC5E67933FF33E35C002B00D1B9E655
:10518400BE225200A15C1E00002900D1B2E620001C
:1051940000236130A354FF3000F064FAAAE63933E7
:1051A400FF33E35C002B00D19EE69E225200A15CFB
:1051B4001E00002900D197E6200000232130A354CB
:1051C400FF3000F04FFA8FE6000011500040054018
:1051D400E41C0020DC1C00203B0200007B020000D9
:1051E400BB020000FB0200003B0300007B03000045
:1051F400BB030000FB0300003221002000301150EB
:10520400100002000020115000001050F833E35C3D
:10521400002B00D162E6FC22A15C1E00002900D113
:105224005CE600232000A354E03000F01BFA55E6AE
:10523400604BE35C002B00D18BE6EF239B00E25C28
:10524400002A00D0A9E05C4BE35C022B00D090E67E
:105254005A4BE35C002B00D092E08AE6584BE35CA7
:10526400002B00D170E6DF229200A15C1E00002911
:1052740000D169E60023A354D8239B00E01800F072
:10528400F1F961E64F4BE35C002B00D157E6CF22E6
:105294009200A15C1E00002900D150E60023A35413
:1052A400C8239B00E01800F0DDF948E6464BE35CB8
:1052B400002B00D13EE6BF229200A15C1E00002913
:1052C40000D137E60023A354B8239B00E01800F074
:1052D400C9F92FE63D4BE35C002B00D125E6AF2254
:1052E4009200A15C1E00002900D11EE60023A354F5
:1052F400A8239B00E01800F0B5F916E6344BE35CF4
:10530400002B00D10CE69F229200A15C1E00002914
:1053140000D105E60023A35498239B00E01800F075
:10532400A1F9FDE52B4BE35C002B00D1F3E58F22C3
:105334009200A15C1E00002900D1ECE50023A354D7
:1053440088239B00E01800F08DF9E4E5F933FF337E
:10535400E35C002B00D1D9E5FE225200A15C1E00C3
:10536400002900D1D2E520000023E130A354FF300E
:1053740000F078F9CAE5114BE35C002B00D1EDE5B0
:10538400FF239B00E25C002A00D1F2E50022E254F4
:105394001C3BE01800F066F9EBE50022E254E82338
:1053A4009B00E01800F05EF94DE721000A486940CF
:1053B40000F0CAFABA030000FB030000FA0300007D
:1053C4007A0300003A030000FA020000BA02000067
:1053D4007A0200003A020000F0480010F0B5D64608
:1053E4004F4646460300C0B51C8B808A8A46221C61
:1053F400844200D9021C802692B2801ADD7884B2DD
:10540400F6009C821643002D02D09026B601164366
:1054140001277D40DD705D783000002D41D151467B
:105424008801D9681F698C46511E88468444002A25
:1054340032D0614602207C1C0C1BA042804108240F
:105444004445A44140426442044238D06046384353
:10545400810734D1151FAD08691C8946002000243A
:1054640061463D5801340D500430A145F8D84946F1
:105474008D0061464C1941467F19481BAA4209D048
:105484003D782570002805D07D786570012801D00D
:10549400B878A0701F699C8A8020BA1800021A612B
:1054A4003043002C02D18023DB0118435346002BE8
:1054B40000D00004E0BCBA46B146A846F0BD0020C6
:1054C40061463C5C0C5401308242F9D1E2E7C046AB
:1054D40082680300F0B51068002900D0000C5A78E7
:1054E4008005800D002A08D1DA8A8218DA821A8BA4
:1054F400824201D900229A82F0BDDA688901451EF0
:10550400AC461C69561800282ED0013151182500CC
:105514000222611A8A428941354301322A405542A6
:105524006A4149420A4225D06246082A22D9002209
:105534000021051FAD080135B7580131A7500432C9
:105544008D42F9D86246AD0076196419571BA842FA
:1055540009D032782270002F05D072786270012F42
:1055640001D0B278A2701C69DA8A24188218DA820F
:105574001C61BCE70022B15CA15401329042FAD113
:105584001C69F1E710B50400836800211B68FFF76C
:105594009FFF63681B685B0002D5238B834200D0A6
:1055A40010BD01212000FFF793FFF9E7084A03002B
:1055B400126C0020920703D49A78D209012A00D0F1
:1055C4007047D87E023843425841C0B2F8E7C0461B
:1055D4000000115010B5FFF7E9FF00280CD007496F
:1055E400074B8C46074A9B6A126863449B1A002047
:1055F400C6229A424041C0B210BDC046E0FCFFFF43
:1056040000400540DC1C00200023837643610361D5
:105614007047C04610B58368002901D01C6821403A
:10562400002A12D08024E400114322420DD01A68CB
:1056340022420CD1084A0A401A60084A126C9207A6
:1056440003D40C23033BFDD28368196010BD817819
:10565400034800F079F9C046FFFBFFFF000011503A
:1056640004490010436870B5002180251E680400B9
:10567400FFF7B4FE134B6D011B6C05439B070FD55D
:10568400A3785B060FD0104B1E4080239B05334349
:1056940062680021136020002A00FFF7BBFF70BD81
:1056A400A378DB09EFD0A38A002BECD001212000E2
:1056B400FFF794FEA023054ADB053240054313435C
:1056C400E6E7C04600001150FFFFFFAFFFFFFFDF1A
:1056D40070B5857E0400002D13D0FFF753FFA38A15
:1056E400002B01D1280070BD2000FFF773FF051EB9
:1056F40003D0012300252377F4E72000FFF7B2FF4E
:10570400F0E78178014800F01FF9C04624490010F1
:10571400F0B5CE46474680B5437805000E0085B007
:10572400062B12D86F4A9B00D3589F4601216E4B1B
:105734001A788A431A701A7801318A431A7000223F
:105744005A701A7802318A431A70684B1C6862696D
:10575400EFF3108172B61368002BFCD0BFF35F8F98
:10576400A1612000290000F0DFF86269A369BFF39A
:105774005F8F0021116083F31088002804D105B0E5
:10578400C0BCB946B046F0BD32006978287800F054
:10579400C3F8F4E7564A13780133DBB21370D4E745
:1057A4005449554F894655490024002388463A7880
:1057B4000CE04146096863018C466344002B0AD11E
:1057C4000134E4B2511C2300A14211DB9442F0D312
:1057D4009B1A5B014B44DB69002BF1D06968287884
:1057E40098473A780134E4B2511C2300A142EDDA1F
:1057F4003D4F3B785B072AD504223B7801AC9343A9
:105804000021200008323B7000F07EF82B782370D2
:1058140005236370354B1B6898465A69EFF3108172
:1058240072B61368002BFCD0BFF35F8F434640462B
:105834009961210000F078F843465A699B69BFF3E7
:105844005F8F0021116083F31088002844D1FB7816
:10585400DB0700D493E701AC0C220021200000F008
:1058640053F82B782370032363706B6863601F4BBA
:105874001D686A69EFF3108172B61368002BFCD0BF
:10588400BFF35F8FA9612800210000F04DF86A6919
:10589400AB69BFF35F8F0021116083F31088002888
:1058A40000D16CE732006178207800F035F866E7C3
:1058B4000D4B1A78D20700D461E704211A780A4301
:1058C4001A7042E7084B1A78D20700D457E704212C
:1058D4001A788A431A7038E732006178207800F029
:1058E4001BF8B4E7D849001090170020E8170020EF
:1058F40033210020F44900103121002064140020D9
:105904007047C0460000000001B40248844601BC50
:10591400604700BFC119001001B40248844601BCAD
:10592400604700BFD127001001B40248844601BC7F
:10593400604700BF2142001001B40248844601BC04
:10594400604700BFED18001001B40248844601BC52
:10595400604700BF1104001001B40248844601BC32
:10596400604700BFF910001001B40248844601BC2E
:10597400604700BF0504001001B40248844601BC1E
:10598400604700BFFD11001010000000000000007F
:105994000000010000000000000000000000020000
:1059A40000000000000000000000030000000000F0
:1059B400000000000000FF000000000001B548687E
:1059C40001318E460047704609380149884701BDB8
:1059D4004D0800100000000000000000000000005E
:1059E4000000000000000000C010002000000000C3
:1059F400503300004C330000543300005233000095
:105A04004D5300004D430000533400004334000064
:105A1400991F0010491F0010B91E0010311E0010FC
:105A24000000000000010000EC17002010000C0032
:105A34000000000000000000000000000000000062
:105A440000000000FF000000000000000000000053
:04000005100001E9FD
:00000001FF
